{
  "contractName": "Election",
  "abi": [
    {
      "inputs": [],
      "stateMutability": "nonpayable",
      "type": "constructor"
    },
    {
      "anonymous": false,
      "inputs": [
        {
          "indexed": true,
          "internalType": "uint256",
          "name": "_candidateId",
          "type": "uint256"
        }
      ],
      "name": "votedEvent",
      "type": "event"
    },
    {
      "inputs": [
        {
          "internalType": "uint256",
          "name": "",
          "type": "uint256"
        }
      ],
      "name": "candidates",
      "outputs": [
        {
          "internalType": "uint256",
          "name": "id",
          "type": "uint256"
        },
        {
          "internalType": "string",
          "name": "name",
          "type": "string"
        },
        {
          "internalType": "uint256",
          "name": "voteCount",
          "type": "uint256"
        }
      ],
      "stateMutability": "view",
      "type": "function"
    },
    {
      "inputs": [],
      "name": "candidatesCount",
      "outputs": [
        {
          "internalType": "uint256",
          "name": "",
          "type": "uint256"
        }
      ],
      "stateMutability": "view",
      "type": "function"
    },
    {
      "inputs": [
        {
          "internalType": "address",
          "name": "",
          "type": "address"
        }
      ],
      "name": "voters",
      "outputs": [
        {
          "internalType": "bool",
          "name": "",
          "type": "bool"
        }
      ],
      "stateMutability": "view",
      "type": "function"
    },
    {
      "inputs": [
        {
          "internalType": "string",
          "name": "candidate_1_",
          "type": "string"
        },
        {
          "internalType": "string",
          "name": "candidate_2_",
          "type": "string"
        }
      ],
      "name": "setElections",
      "outputs": [],
      "stateMutability": "nonpayable",
      "type": "function"
    },
    {
      "inputs": [
        {
          "internalType": "uint256",
          "name": "_candidateId",
          "type": "uint256"
        }
      ],
      "name": "vote",
      "outputs": [],
      "stateMutability": "nonpayable",
      "type": "function"
    }
  ],
  "bytecode": "0x608060405234801561001057600080fd5b5060408051808201909152600b81526a43616e646964617465203160a81b602082015261003c9061006c565b60408051808201909152600b81526a21b0b73234b230ba32901960a91b60208201526100679061006c565b6101d6565b6001805490600061007c836101ad565b90915550506040805160608101825260018054808352602080840186815260008587018190529283528282529490912083518155935180519394936100c89385019291909101906100d9565b506040820151816002015590505050565b8280546100e590610172565b90600052602060002090601f016020900481019282610107576000855561014d565b82601f1061012057805160ff191683800117855561014d565b8280016001018555821561014d579182015b8281111561014d578251825591602001919060010190610132565b5061015992915061015d565b5090565b5b80821115610159576000815560010161015e565b600181811c9082168061018657607f821691505b602082108114156101a757634e487b7160e01b600052602260045260246000fd5b50919050565b60006000198214156101cf57634e487b7160e01b600052601160045260246000fd5b5060010190565b6105a7806101e56000396000f3fe608060405234801561001057600080fd5b50600436106100575760003560e01c80630121b93f1461005c5780632d35a8a2146100715780633477ee2e1461008d578063a3ec138d146100af578063f4c27b54146100e2575b600080fd5b61006f61006a366004610479565b6100f5565b005b61007a60015481565b6040519081526020015b60405180910390f35b6100a061009b366004610479565b610193565b60405161008493929190610492565b6100d26100bd3660046103e6565b60026020526000908152604090205460ff1681565b6040519015158152602001610084565b61006f6100f0366004610416565b61023e565b3360009081526002602052604090205460ff161561011257600080fd5b60008111801561012457506001548111155b61012d57600080fd5b336000908152600260208181526040808420805460ff191660011790558484529083905282200180549161016083610532565b909155505060405181907ffff3c900d938d21d0990d786e819f29b8d05c1ef587b462b939609625b684b1690600090a250565b600060208190529081526040902080546001820180549192916101b5906104f7565b80601f01602080910402602001604051908101604052809291908181526020018280546101e1906104f7565b801561022e5780601f106102035761010080835404028352916020019161022e565b820191906000526020600020905b81548152906001019060200180831161021157829003601f168201915b5050505050908060020154905083565b61024782610254565b61025081610254565b5050565b6001805490600061026483610532565b90915550506040805160608101825260018054808352602080840186815260008587018190529283528282529490912083518155935180519394936102b09385019291909101906102c1565b506040820151816002015590505050565b8280546102cd906104f7565b90600052602060002090601f0160209004810192826102ef5760008555610335565b82601f1061030857805160ff1916838001178555610335565b82800160010185558215610335579182015b8281111561033557825182559160200191906001019061031a565b50610341929150610345565b5090565b5b808211156103415760008155600101610346565b600082601f83011261036b57600080fd5b81356001600160401b03808211156103855761038561055b565b604051601f8301601f19908116603f011681019082821181831017156103ad576103ad61055b565b816040528381528660208588010111156103c657600080fd5b836020870160208301376000602085830101528094505050505092915050565b6000602082840312156103f857600080fd5b81356001600160a01b038116811461040f57600080fd5b9392505050565b6000806040838503121561042957600080fd5b82356001600160401b038082111561044057600080fd5b61044c8683870161035a565b9350602085013591508082111561046257600080fd5b5061046f8582860161035a565b9150509250929050565b60006020828403121561048b57600080fd5b5035919050565b83815260006020606081840152845180606085015260005b818110156104c6578681018301518582016080015282016104aa565b818111156104d8576000608083870101525b5060408401949094525050601f91909101601f19160160800192915050565b600181811c9082168061050b57607f821691505b6020821081141561052c57634e487b7160e01b600052602260045260246000fd5b50919050565b600060001982141561055457634e487b7160e01b600052601160045260246000fd5b5060010190565b634e487b7160e01b600052604160045260246000fdfea2646970667358221220cd5a8ef96c140eefaf20161265ce79f39503885e512da53c7d4dd067d57b6a3a64736f6c63430008060033",
  "immutableReferences": {},
  "source": "pragma solidity ^0.8.0;\n\ncontract Election {\n\n  event votedEvent (\n    uint indexed _candidateId\n  );\n\n  constructor () {\n    addCandidate(\"Candidate 1\");\n    addCandidate(\"Candidate 2\");\n  }\n  \n  // constructor ( string memory candidate_1_, string memory candidate_2_ ){\n  //     addCandidate(candidate_1_);\n  //     addCandidate(candidate_2_);\n  // }\n  \n  struct Candidate {\n    uint id;\n    string name;\n    uint voteCount;\n  }\n  \n  mapping(uint => Candidate) public candidates;\n  uint public candidatesCount;\n  \n  function addCandidate (string memory _name) private {\n    candidatesCount++;\n    candidates[candidatesCount] = Candidate(candidatesCount, _name, 0);\n  }\n  \n  function setElections ( string memory candidate_1_, string memory candidate_2_ ) public {\n    addCandidate(candidate_1_);\n    addCandidate(candidate_2_);\n  }\n\n\tmapping(address => bool) public voters;\n\n  function vote (uint _candidateId) public {\n    // require that they haven't voted before\n    require(!voters[msg.sender]);\n\n    // require a valid candidate\n    require(_candidateId > 0 && _candidateId <= candidatesCount);\n\n    // record that voter has voted\n    voters[msg.sender] = true;\n\n    // update candidate vote Count\n    candidates[_candidateId].voteCount ++;\n\n    // trigger voted event\n    emit votedEvent(_candidateId);\n    }\n}\n\n\n\n",
  "sourcePath": "/home/hillary/Block-Vote/contracts/Election.sol",
  "compiler": {
    "name": "solc",
    "version": "0.8.6+commit.11564f7e.Emscripten.clang"
  },
  "schemaVersion": "3.4.2",
  "updatedAt": "2021-07-28T16:50:37.338Z",
  "devdoc": {
    "kind": "dev",
    "methods": {},
    "version": 1
  },
  "userdoc": {
    "kind": "user",
    "methods": {},
    "version": 1
  }
}